{
  "_format": "hh-sol-artifact-1",
  "contractName": "HoneyPotPot",
  "sourceName": "contracts/HoneyPotPot.sol",
  "abi": [
    {
      "inputs": [
        {
          "internalType": "address",
          "name": "musd_",
          "type": "address"
        },
        {
          "internalType": "address",
          "name": "lineaToken_",
          "type": "address"
        },
        {
          "internalType": "address",
          "name": "beeCollection_",
          "type": "address"
        },
        {
          "internalType": "address",
          "name": "bearWallet_",
          "type": "address"
        },
        {
          "internalType": "address",
          "name": "creatorWallet_",
          "type": "address"
        },
        {
          "internalType": "uint16",
          "name": "seasonDays_",
          "type": "uint16"
        },
        {
          "internalType": "uint40",
          "name": "depositWindow_",
          "type": "uint40"
        },
        {
          "internalType": "uint256",
          "name": "dailyDepositAmount_",
          "type": "uint256"
        },
        {
          "internalType": "uint256",
          "name": "totalBeeSupply_",
          "type": "uint256"
        }
      ],
      "stateMutability": "nonpayable",
      "type": "constructor"
    },
    {
      "inputs": [],
      "name": "AccessControlBadConfirmation",
      "type": "error"
    },
    {
      "inputs": [
        {
          "internalType": "address",
          "name": "account",
          "type": "address"
        },
        {
          "internalType": "bytes32",
          "name": "neededRole",
          "type": "bytes32"
        }
      ],
      "name": "AccessControlUnauthorizedAccount",
      "type": "error"
    },
    {
      "inputs": [],
      "name": "BearProtected",
      "type": "error"
    },
    {
      "inputs": [],
      "name": "BeeAlreadyEliminated",
      "type": "error"
    },
    {
      "inputs": [],
      "name": "DepositClosed",
      "type": "error"
    },
    {
      "inputs": [],
      "name": "DepositWindowActive",
      "type": "error"
    },
    {
      "inputs": [],
      "name": "NotBeeOwner",
      "type": "error"
    },
    {
      "inputs": [],
      "name": "ReentrancyGuardReentrantCall",
      "type": "error"
    },
    {
      "inputs": [
        {
          "internalType": "address",
          "name": "token",
          "type": "address"
        }
      ],
      "name": "SafeERC20FailedOperation",
      "type": "error"
    },
    {
      "inputs": [],
      "name": "SeasonCompleted",
      "type": "error"
    },
    {
      "anonymous": false,
      "inputs": [
        {
          "indexed": true,
          "internalType": "uint256",
          "name": "tokenId",
          "type": "uint256"
        },
        {
          "indexed": false,
          "internalType": "uint256",
          "name": "randomWord",
          "type": "uint256"
        }
      ],
      "name": "BearSelected",
      "type": "event"
    },
    {
      "anonymous": false,
      "inputs": [
        {
          "indexed": true,
          "internalType": "address",
          "name": "wallet",
          "type": "address"
        }
      ],
      "name": "BearWalletUpdated",
      "type": "event"
    },
    {
      "anonymous": false,
      "inputs": [
        {
          "indexed": true,
          "internalType": "uint256",
          "name": "tokenId",
          "type": "uint256"
        },
        {
          "indexed": true,
          "internalType": "address",
          "name": "executor",
          "type": "address"
        }
      ],
      "name": "BeeEliminated",
      "type": "event"
    },
    {
      "anonymous": false,
      "inputs": [
        {
          "indexed": true,
          "internalType": "address",
          "name": "wallet",
          "type": "address"
        }
      ],
      "name": "CreatorWalletUpdated",
      "type": "event"
    },
    {
      "anonymous": false,
      "inputs": [
        {
          "indexed": true,
          "internalType": "uint256",
          "name": "tokenId",
          "type": "uint256"
        },
        {
          "indexed": true,
          "internalType": "address",
          "name": "beeOwner",
          "type": "address"
        },
        {
          "indexed": false,
          "internalType": "uint16",
          "name": "dayNumber",
          "type": "uint16"
        },
        {
          "indexed": false,
          "internalType": "uint256",
          "name": "amountMusd",
          "type": "uint256"
        },
        {
          "indexed": false,
          "internalType": "uint256",
          "name": "amountLinea",
          "type": "uint256"
        },
        {
          "indexed": false,
          "internalType": "uint256",
          "name": "nextDeadline",
          "type": "uint256"
        }
      ],
      "name": "DepositRecorded",
      "type": "event"
    },
    {
      "anonymous": false,
      "inputs": [
        {
          "indexed": true,
          "internalType": "uint256",
          "name": "amountIn",
          "type": "uint256"
        },
        {
          "indexed": false,
          "internalType": "uint256",
          "name": "bearPayout",
          "type": "uint256"
        },
        {
          "indexed": false,
          "internalType": "uint256",
          "name": "creatorPayout",
          "type": "uint256"
        },
        {
          "indexed": false,
          "internalType": "uint256",
          "name": "lineaReceived",
          "type": "uint256"
        }
      ],
      "name": "InitialPotProcessed",
      "type": "event"
    },
    {
      "anonymous": false,
      "inputs": [
        {
          "indexed": true,
          "internalType": "bytes32",
          "name": "role",
          "type": "bytes32"
        },
        {
          "indexed": true,
          "internalType": "bytes32",
          "name": "previousAdminRole",
          "type": "bytes32"
        },
        {
          "indexed": true,
          "internalType": "bytes32",
          "name": "newAdminRole",
          "type": "bytes32"
        }
      ],
      "name": "RoleAdminChanged",
      "type": "event"
    },
    {
      "anonymous": false,
      "inputs": [
        {
          "indexed": true,
          "internalType": "bytes32",
          "name": "role",
          "type": "bytes32"
        },
        {
          "indexed": true,
          "internalType": "address",
          "name": "account",
          "type": "address"
        },
        {
          "indexed": true,
          "internalType": "address",
          "name": "sender",
          "type": "address"
        }
      ],
      "name": "RoleGranted",
      "type": "event"
    },
    {
      "anonymous": false,
      "inputs": [
        {
          "indexed": true,
          "internalType": "bytes32",
          "name": "role",
          "type": "bytes32"
        },
        {
          "indexed": true,
          "internalType": "address",
          "name": "account",
          "type": "address"
        },
        {
          "indexed": true,
          "internalType": "address",
          "name": "sender",
          "type": "address"
        }
      ],
      "name": "RoleRevoked",
      "type": "event"
    },
    {
      "anonymous": false,
      "inputs": [
        {
          "indexed": true,
          "internalType": "address",
          "name": "adapter",
          "type": "address"
        }
      ],
      "name": "SwapAdapterUpdated",
      "type": "event"
    },
    {
      "anonymous": false,
      "inputs": [
        {
          "indexed": true,
          "internalType": "address",
          "name": "pool",
          "type": "address"
        }
      ],
      "name": "SwapPoolUpdated",
      "type": "event"
    },
    {
      "inputs": [],
      "name": "DEFAULT_ADMIN_ROLE",
      "outputs": [
        {
          "internalType": "bytes32",
          "name": "",
          "type": "bytes32"
        }
      ],
      "stateMutability": "view",
      "type": "function"
    },
    {
      "inputs": [],
      "name": "KEEPER_ROLE",
      "outputs": [
        {
          "internalType": "bytes32",
          "name": "",
          "type": "bytes32"
        }
      ],
      "stateMutability": "view",
      "type": "function"
    },
    {
      "inputs": [],
      "name": "TREASURER_ROLE",
      "outputs": [
        {
          "internalType": "bytes32",
          "name": "",
          "type": "bytes32"
        }
      ],
      "stateMutability": "view",
      "type": "function"
    },
    {
      "inputs": [],
      "name": "bearSelected",
      "outputs": [
        {
          "internalType": "bool",
          "name": "",
          "type": "bool"
        }
      ],
      "stateMutability": "view",
      "type": "function"
    },
    {
      "inputs": [],
      "name": "bearTokenId",
      "outputs": [
        {
          "internalType": "uint256",
          "name": "",
          "type": "uint256"
        }
      ],
      "stateMutability": "view",
      "type": "function"
    },
    {
      "inputs": [],
      "name": "bearWallet",
      "outputs": [
        {
          "internalType": "address",
          "name": "",
          "type": "address"
        }
      ],
      "stateMutability": "view",
      "type": "function"
    },
    {
      "inputs": [],
      "name": "beeCollection",
      "outputs": [
        {
          "internalType": "contract IOpenEditionBurnable",
          "name": "",
          "type": "address"
        }
      ],
      "stateMutability": "view",
      "type": "function"
    },
    {
      "inputs": [
        {
          "internalType": "uint256",
          "name": "",
          "type": "uint256"
        }
      ],
      "name": "beeState",
      "outputs": [
        {
          "internalType": "uint40",
          "name": "lastDepositAt",
          "type": "uint40"
        },
        {
          "internalType": "uint16",
          "name": "daysPaid",
          "type": "uint16"
        },
        {
          "internalType": "bool",
          "name": "eliminated",
          "type": "bool"
        },
        {
          "internalType": "bool",
          "name": "rewardClaimed",
          "type": "bool"
        }
      ],
      "stateMutability": "view",
      "type": "function"
    },
    {
      "inputs": [
        {
          "internalType": "uint16",
          "name": "seasonDays_",
          "type": "uint16"
        },
        {
          "internalType": "uint40",
          "name": "depositWindow_",
          "type": "uint40"
        },
        {
          "internalType": "uint256",
          "name": "dailyDepositAmount_",
          "type": "uint256"
        },
        {
          "internalType": "uint256",
          "name": "totalBeeSupply_",
          "type": "uint256"
        },
        {
          "internalType": "uint40",
          "name": "newSeasonStart",
          "type": "uint40"
        },
        {
          "internalType": "uint256",
          "name": "newSeasonIdentifier",
          "type": "uint256"
        }
      ],
      "name": "configureSeason",
      "outputs": [],
      "stateMutability": "nonpayable",
      "type": "function"
    },
    {
      "inputs": [],
      "name": "creatorWallet",
      "outputs": [
        {
          "internalType": "address",
          "name": "",
          "type": "address"
        }
      ],
      "stateMutability": "view",
      "type": "function"
    },
    {
      "inputs": [],
      "name": "dailyDepositAmount",
      "outputs": [
        {
          "internalType": "uint256",
          "name": "",
          "type": "uint256"
        }
      ],
      "stateMutability": "view",
      "type": "function"
    },
    {
      "inputs": [
        {
          "internalType": "uint256",
          "name": "tokenId",
          "type": "uint256"
        },
        {
          "internalType": "bytes",
          "name": "swapCalldata",
          "type": "bytes"
        }
      ],
      "name": "deposit",
      "outputs": [],
      "stateMutability": "nonpayable",
      "type": "function"
    },
    {
      "inputs": [],
      "name": "depositWindow",
      "outputs": [
        {
          "internalType": "uint40",
          "name": "",
          "type": "uint40"
        }
      ],
      "stateMutability": "view",
      "type": "function"
    },
    {
      "inputs": [
        {
          "internalType": "uint256",
          "name": "tokenId",
          "type": "uint256"
        }
      ],
      "name": "forceEliminate",
      "outputs": [],
      "stateMutability": "nonpayable",
      "type": "function"
    },
    {
      "inputs": [
        {
          "internalType": "uint256",
          "name": "tokenId",
          "type": "uint256"
        }
      ],
      "name": "getCurrentDeadline",
      "outputs": [
        {
          "internalType": "uint256",
          "name": "",
          "type": "uint256"
        }
      ],
      "stateMutability": "view",
      "type": "function"
    },
    {
      "inputs": [
        {
          "internalType": "bytes32",
          "name": "role",
          "type": "bytes32"
        }
      ],
      "name": "getRoleAdmin",
      "outputs": [
        {
          "internalType": "bytes32",
          "name": "",
          "type": "bytes32"
        }
      ],
      "stateMutability": "view",
      "type": "function"
    },
    {
      "inputs": [
        {
          "internalType": "bytes32",
          "name": "role",
          "type": "bytes32"
        },
        {
          "internalType": "address",
          "name": "account",
          "type": "address"
        }
      ],
      "name": "grantRole",
      "outputs": [],
      "stateMutability": "nonpayable",
      "type": "function"
    },
    {
      "inputs": [
        {
          "internalType": "bytes32",
          "name": "role",
          "type": "bytes32"
        },
        {
          "internalType": "address",
          "name": "account",
          "type": "address"
        }
      ],
      "name": "hasRole",
      "outputs": [
        {
          "internalType": "bool",
          "name": "",
          "type": "bool"
        }
      ],
      "stateMutability": "view",
      "type": "function"
    },
    {
      "inputs": [],
      "name": "initialPotProcessed",
      "outputs": [
        {
          "internalType": "bool",
          "name": "",
          "type": "bool"
        }
      ],
      "stateMutability": "view",
      "type": "function"
    },
    {
      "inputs": [],
      "name": "lineaToken",
      "outputs": [
        {
          "internalType": "contract IERC20",
          "name": "",
          "type": "address"
        }
      ],
      "stateMutability": "view",
      "type": "function"
    },
    {
      "inputs": [],
      "name": "musd",
      "outputs": [
        {
          "internalType": "contract IERC20",
          "name": "",
          "type": "address"
        }
      ],
      "stateMutability": "view",
      "type": "function"
    },
    {
      "inputs": [],
      "name": "musdLineaPool",
      "outputs": [
        {
          "internalType": "address",
          "name": "",
          "type": "address"
        }
      ],
      "stateMutability": "view",
      "type": "function"
    },
    {
      "inputs": [
        {
          "internalType": "bytes32",
          "name": "role",
          "type": "bytes32"
        },
        {
          "internalType": "address",
          "name": "callerConfirmation",
          "type": "address"
        }
      ],
      "name": "renounceRole",
      "outputs": [],
      "stateMutability": "nonpayable",
      "type": "function"
    },
    {
      "inputs": [
        {
          "internalType": "bytes32",
          "name": "role",
          "type": "bytes32"
        },
        {
          "internalType": "address",
          "name": "account",
          "type": "address"
        }
      ],
      "name": "revokeRole",
      "outputs": [],
      "stateMutability": "nonpayable",
      "type": "function"
    },
    {
      "inputs": [],
      "name": "seasonDays",
      "outputs": [
        {
          "internalType": "uint16",
          "name": "",
          "type": "uint16"
        }
      ],
      "stateMutability": "view",
      "type": "function"
    },
    {
      "inputs": [],
      "name": "seasonIdentifier",
      "outputs": [
        {
          "internalType": "uint256",
          "name": "",
          "type": "uint256"
        }
      ],
      "stateMutability": "view",
      "type": "function"
    },
    {
      "inputs": [],
      "name": "seasonStart",
      "outputs": [
        {
          "internalType": "uint40",
          "name": "",
          "type": "uint40"
        }
      ],
      "stateMutability": "view",
      "type": "function"
    },
    {
      "inputs": [
        {
          "internalType": "uint256",
          "name": "amountIn",
          "type": "uint256"
        },
        {
          "internalType": "uint256",
          "name": "randomWord",
          "type": "uint256"
        },
        {
          "internalType": "bytes",
          "name": "swapCalldata",
          "type": "bytes"
        }
      ],
      "name": "seedInitialPot",
      "outputs": [
        {
          "internalType": "uint256",
          "name": "lineaReceived",
          "type": "uint256"
        }
      ],
      "stateMutability": "nonpayable",
      "type": "function"
    },
    {
      "inputs": [
        {
          "internalType": "uint256",
          "name": "randomWord",
          "type": "uint256"
        }
      ],
      "name": "selectBear",
      "outputs": [],
      "stateMutability": "nonpayable",
      "type": "function"
    },
    {
      "inputs": [
        {
          "internalType": "address",
          "name": "adapter",
          "type": "address"
        }
      ],
      "name": "setSwapAdapter",
      "outputs": [],
      "stateMutability": "nonpayable",
      "type": "function"
    },
    {
      "inputs": [
        {
          "internalType": "address",
          "name": "pool",
          "type": "address"
        }
      ],
      "name": "setSwapPool",
      "outputs": [],
      "stateMutability": "nonpayable",
      "type": "function"
    },
    {
      "inputs": [
        {
          "internalType": "bytes4",
          "name": "interfaceId",
          "type": "bytes4"
        }
      ],
      "name": "supportsInterface",
      "outputs": [
        {
          "internalType": "bool",
          "name": "",
          "type": "bool"
        }
      ],
      "stateMutability": "view",
      "type": "function"
    },
    {
      "inputs": [],
      "name": "survivors",
      "outputs": [
        {
          "internalType": "uint256",
          "name": "",
          "type": "uint256"
        }
      ],
      "stateMutability": "view",
      "type": "function"
    },
    {
      "inputs": [],
      "name": "swapAdapter",
      "outputs": [
        {
          "internalType": "contract ILineaSwapAdapter",
          "name": "",
          "type": "address"
        }
      ],
      "stateMutability": "view",
      "type": "function"
    },
    {
      "inputs": [],
      "name": "totalBeeSupply",
      "outputs": [
        {
          "internalType": "uint256",
          "name": "",
          "type": "uint256"
        }
      ],
      "stateMutability": "view",
      "type": "function"
    },
    {
      "inputs": [],
      "name": "totalDepositedMusd",
      "outputs": [
        {
          "internalType": "uint256",
          "name": "",
          "type": "uint256"
        }
      ],
      "stateMutability": "view",
      "type": "function"
    },
    {
      "inputs": [],
      "name": "totalLineaRecorded",
      "outputs": [
        {
          "internalType": "uint256",
          "name": "",
          "type": "uint256"
        }
      ],
      "stateMutability": "view",
      "type": "function"
    },
    {
      "inputs": [
        {
          "internalType": "address",
          "name": "wallet",
          "type": "address"
        }
      ],
      "name": "updateBearWallet",
      "outputs": [],
      "stateMutability": "nonpayable",
      "type": "function"
    },
    {
      "inputs": [
        {
          "internalType": "address",
          "name": "wallet",
          "type": "address"
        }
      ],
      "name": "updateCreatorWallet",
      "outputs": [],
      "stateMutability": "nonpayable",
      "type": "function"
    }
  ],
  "bytecode": "0x60e06040523480156200001157600080fd5b50604051620023f7380380620023f7833981016040819052620000349162000402565b600180556001600160a01b038916158015906200005957506001600160a01b03881615155b80156200006e57506001600160a01b03871615155b620000af5760405162461bcd60e51b815260206004820152600c60248201526b5a65726f206164647265737360a01b60448201526064015b60405180910390fd5b6001600160a01b03861615801590620000d057506001600160a01b03851615155b6200011e5760405162461bcd60e51b815260206004820152601760248201527f5265776172642077616c6c6574732072657175697265640000000000000000006044820152606401620000a6565b60008461ffff1611620001625760405162461bcd60e51b815260206004820152600b60248201526a536561736f6e206461797360a81b6044820152606401620000a6565b60008364ffffffffff1611620001a45760405162461bcd60e51b815260206004820152600660248201526557696e646f7760d01b6044820152606401620000a6565b60008211620001e75760405162461bcd60e51b815260206004820152600e60248201526d11195c1bdcda5d08185b5bdd5b9d60921b6044820152606401620000a6565b60008111620002225760405162461bcd60e51b8152602060048201526006602482015265537570706c7960d01b6044820152606401620000a6565b6001600160a01b03808a1660805288811660a05287811660c052600680548883166001600160a01b031991821617909155600e8054928816929091169190911790556002805464ffffffffff808616620100000266ffffffffffffff1990921661ffff88161791909117909155600383905560048290556007805442909216600160a01b0264ffffffffff60a01b199092169190911790556001600d55620002cc60003362000336565b50620002f97f3496e2e73c4d42b75d702e60d9e48102720b8691234415963a5a857b86425d073362000336565b50620003267ffc8737ab85eb45125971625a9ebdb75cc78e01d5c1fa80c4c6e5203f47bc4fab3362000336565b50505050505050505050620004c1565b6000828152602081815260408083206001600160a01b038516845290915281205460ff16620003db576000838152602081815260408083206001600160a01b03861684529091529020805460ff19166001179055620003923390565b6001600160a01b0316826001600160a01b0316847f2f8788117e7eff1d82e926ec794901d17c78024a50270940304540a733656f0d60405160405180910390a4506001620003df565b5060005b92915050565b80516001600160a01b0381168114620003fd57600080fd5b919050565b60008060008060008060008060006101208a8c0312156200042257600080fd5b6200042d8a620003e5565b98506200043d60208b01620003e5565b97506200044d60408b01620003e5565b96506200045d60608b01620003e5565b95506200046d60808b01620003e5565b945060a08a015161ffff811681146200048557600080fd5b60c08b015190945064ffffffffff81168114620004a157600080fd5b8093505060e08a015191506101008a015190509295985092959850929598565b60805160a05160c051611ea4620005536000396000818161041901528181610a5101528181610aea01528181610f0701526119710152600081816105b101528181610c34015261123a01526000818161055c0152818161094301528181610a0601528181610b6801528181610bc101528181610c1201528181611184015281816111c201526112180152611ea46000f3fe608060405234801561001057600080fd5b506004361061023d5760003560e01c806377bb1eb91161013b578063bafa0946116100b8578063e40c922a1161007c578063e40c922a1461059a578063e4ab94a0146105ac578063e549f18d146105d3578063f0a3a97c146105dc578063f9cf71ae1461060357600080fd5b8063bafa094614610536578063bf3196e01461054e578063cab666d014610557578063cda34a361461057e578063d547741f1461058757600080fd5b8063932b3c90116100ff578063932b3c90146104ec578063995228d5146104f5578063a217fddf14610508578063a2b5ba8214610510578063b826ee541461052357600080fd5b806377bb1eb91461049757806377ebb9b8146104aa5780637cdc65f2146104bd5780638bea28a7146104d057806391d14854146104d957600080fd5b8063364bc15a116101c957806354a900381161018d57806354a90038146104145780635d3035191461043b5780636970ac231461044e57806370e0fbef1461045757806376bc05ae1461046a57600080fd5b8063364bc15a1461032a57806336568abe146103515780633af3c732146103645780634637a4fd146103775780634745a9bb1461039857600080fd5b806316fb4dfc1161021057806316fb4dfc146102a357806321b79968146102b6578063248a9ca3146102c95780632ddbd51b146102ec5780632f2ff15d1461031757600080fd5b806301ffc9a7146102425780630e849b561461026a5780630fcf61f91461027f57806310e7bd4814610296575b600080fd5b610255610250366004611b22565b610616565b60405190151581526020015b60405180910390f35b61027d610278366004611b61565b61064d565b005b610288600d5481565b604051908152602001610261565b6009546102559060ff1681565b6102886102b1366004611bc7565b6106ec565b61027d6102c4366004611b61565b610d26565b6102886102d7366004611c1a565b60009081526020819052604090206001015490565b6006546102ff906001600160a01b031681565b6040516001600160a01b039091168152602001610261565b61027d610325366004611c33565b610dc0565b6102887ffc8737ab85eb45125971625a9ebdb75cc78e01d5c1fa80c4c6e5203f47bc4fab81565b61027d61035f366004611c33565b610deb565b61027d610372366004611c1a565b610e23565b6002546103859061ffff1681565b60405161ffff9091168152602001610261565b6103e16103a6366004611c1a565b600f6020526000908152604090205464ffffffffff81169061ffff600160281b8204169060ff600160381b8204811691600160401b90041684565b6040805164ffffffffff909516855261ffff90931660208501529015159183019190915215156060820152608001610261565b6102ff7f000000000000000000000000000000000000000000000000000000000000000081565b61027d610449366004611c63565b610f96565b61028860085481565b61027d610465366004611b61565b611389565b6002546104819062010000900464ffffffffff1681565b60405164ffffffffff9091168152602001610261565b6005546102ff906001600160a01b031681565b61027d6104b8366004611cc9565b611421565b600e546102ff906001600160a01b031681565b610288600a5481565b6102556104e7366004611c33565b6114f8565b610288600b5481565b6007546102ff906001600160a01b031681565b610288600081565b61027d61051e366004611c1a565b611521565b61027d610531366004611b61565b6115c3565b60075461048190600160a01b900464ffffffffff1681565b61028860045481565b6102ff7f000000000000000000000000000000000000000000000000000000000000000081565b610288600c5481565b61027d610595366004611c33565b611619565b60095461025590610100900460ff1681565b6102ff7f000000000000000000000000000000000000000000000000000000000000000081565b61028860035481565b6102887f3496e2e73c4d42b75d702e60d9e48102720b8691234415963a5a857b86425d0781565b610288610611366004611c1a565b61163e565b60006001600160e01b03198216637965db0b60e01b148061064757506301ffc9a760e01b6001600160e01b03198316145b92915050565b6000610658816116ed565b6001600160a01b0382166106a15760405162461bcd60e51b815260206004820152600b60248201526a16995c9bc81dd85b1b195d60aa1b60448201526064015b60405180910390fd5b600e80546001600160a01b0319166001600160a01b0384169081179091556040517fc650520a780b16ba23de85005b45f178b68c829fea03946dadd7cd0b1de4b80190600090a25050565b60007f3496e2e73c4d42b75d702e60d9e48102720b8691234415963a5a857b86425d07610718816116ed565b6107206116fa565b600954610100900460ff16156107655760405162461bcd60e51b815260206004820152600a602482015269141bdd081cd95959195960b21b6044820152606401610698565b600086116107a15760405162461bcd60e51b8152602060048201526009602482015268139bc8185b5bdd5b9d60ba1b6044820152606401610698565b60095460ff16610801576107b485611724565b60088190556009805460ff191660011790556040517ff740fcaaf609aa8b8706b5dfa3b56ff29a687e8079928984326d7486cb6aa185906107f89088815260200190565b60405180910390a25b6006546001600160a01b031661084f5760405162461bcd60e51b8152602060048201526013602482015272426561722077616c6c6574206d697373696e6760681b6044820152606401610698565b600e546001600160a01b03166108a05760405162461bcd60e51b815260206004820152601660248201527543726561746f722077616c6c6574206d697373696e6760501b6044820152606401610698565b6005546001600160a01b03166108ef5760405162461bcd60e51b8152602060048201526014602482015273537761702061646170746572206d697373696e6760601b6044820152606401610698565b6007546001600160a01b03166109365760405162461bcd60e51b815260206004820152600c60248201526b506f6f6c206d697373696e6760a01b6044820152606401610698565b61096b6001600160a01b037f000000000000000000000000000000000000000000000000000000000000000016333089611740565b600061271061097c6103e889611d47565b6109869190611d74565b90506000612710610999610fa08a611d47565b6109a39190611d74565b9050876109b08284611d88565b11156109ef5760405162461bcd60e51b815260206004820152600e60248201526d53706c6974206f766572666c6f7760901b6044820152606401610698565b8115610b5157600654610a2f906001600160a01b037f000000000000000000000000000000000000000000000000000000000000000081169116846117a7565b60085415610b51576008546040516331a9108f60e11b815260048101919091527f00000000000000000000000000000000000000000000000000000000000000006001600160a01b031690636352211e90602401602060405180830381865afa925050508015610abc575060408051601f3d908101601f19168201909252610ab991810190611d9b565b60015b15610b51576001600160a01b03811615610b4f57600854604051630852cd8d60e31b815260048101919091527f00000000000000000000000000000000000000000000000000000000000000006001600160a01b0316906342966c6890602401600060405180830381600087803b158015610b3657600080fd5b505af1158015610b4a573d6000803e3d6000fd5b505050505b505b8015610b9157600e54610b91906001600160a01b037f000000000000000000000000000000000000000000000000000000000000000081169116836117a7565b600081610b9e848b611db8565b610ba89190611db8565b90508015610cbf57600554610bea906001600160a01b037f000000000000000000000000000000000000000000000000000000000000000081169116836117d8565b6005546040516321d053f960e11b81526001600160a01b03909116906343a0a7f290610c62907f0000000000000000000000000000000000000000000000000000000000000000907f00000000000000000000000000000000000000000000000000000000000000009086908d908d90600401611dcb565b6020604051808303816000875af1158015610c81573d6000803e3d6000fd5b505050506040513d601f19601f82011682018060405250810190610ca59190611e1f565b945084600b6000828254610cb99190611d88565b90915550505b6009805461ff001916610100179055604080518481526020810184905290810186905289907f33621a44c0b2670198af33d5aa77190e0c50a6783a1f6e0225c9cdf1cddaa8b19060600160405180910390a2505050610d1d60018055565b50949350505050565b6000610d31816116ed565b6001600160a01b038216610d755760405162461bcd60e51b815260206004820152600b60248201526a16995c9bc81dd85b1b195d60aa1b6044820152606401610698565b600680546001600160a01b0319166001600160a01b0384169081179091556040517f04b1f99c32e25fc5b228fe34bc8c8e40e70999cb866db5f88adea972a288be0c90600090a25050565b600082815260208190526040902060010154610ddb816116ed565b610de58383611868565b50505050565b6001600160a01b0381163314610e145760405163334bd91960e11b815260040160405180910390fd5b610e1e82826118fa565b505050565b7ffc8737ab85eb45125971625a9ebdb75cc78e01d5c1fa80c4c6e5203f47bc4fab610e4d816116ed565b6000828152600f602052604090208054600160381b900460ff1615610e85576040516371fd964760e01b815260040160405180910390fd5b6008548303610ea757604051637237856d60e01b815260040160405180910390fd5b6000610eb28461163e565b9050804211610ed4576040516369b9281160e11b815260040160405180910390fd5b815467ff000000000000001916600160381b178255604051630852cd8d60e31b8152600481018590526001600160a01b037f000000000000000000000000000000000000000000000000000000000000000016906342966c6890602401600060405180830381600087803b158015610f4b57600080fd5b505af1158015610f5f573d6000803e3d6000fd5b50506040513392508691507ff2d05bfe90d5e3c435ccf181d3f9618239a983c739f13d0858cf72a0052873df90600090a350505050565b610f9e6116fa565b6000838152600f602052604090208054600160381b900460ff1615610fd6576040516371fd964760e01b815260040160405180910390fd5b600254815461ffff918216600160281b9091049091161061100a5760405163a2cfd13560e01b815260040160405180910390fd5b6110143385611965565b600061101f8561163e565b9050804211156110425760405163e00c8ecd60e01b815260040160405180910390fd5b6005546001600160a01b03166110915760405162461bcd60e51b8152602060048201526014602482015273537761702061646170746572206d697373696e6760601b6044820152606401610698565b6007546001600160a01b03166110d85760405162461bcd60e51b815260206004820152600c60248201526b506f6f6c206d697373696e6760a01b6044820152606401610698565b815464ffffffffff19164264ffffffffff1617808355600190839060059061110c908490600160281b900461ffff16611e38565b92506101000a81548161ffff021916908361ffff160217905550600354600a600082825461113a9190611d88565b9091555050600254825461ffff918216600160281b90910490911603611173576001600c600082825461116d9190611d88565b90915550505b6003546111ae906001600160a01b037f0000000000000000000000000000000000000000000000000000000000000000169033903090611740565b6005546003546111ec916001600160a01b037f00000000000000000000000000000000000000000000000000000000000000008116929116906117d8565b6005546003546040516321d053f960e11b81526000926001600160a01b0316916343a0a7f291611267917f0000000000000000000000000000000000000000000000000000000000000000917f000000000000000000000000000000000000000000000000000000000000000091908b908b90600401611dcb565b6020604051808303816000875af1158015611286573d6000803e3d6000fd5b505050506040513d601f19601f820116820180604052508101906112aa9190611e1f565b9050600081116112ea5760405162461bcd60e51b815260206004820152600b60248201526a14ddd85c0819985a5b195960aa1b6044820152606401610698565b80600b60008282546112fc9190611d88565b90915550508254600354600254339289927ffdcfacc70252d22a98dfe5f0669bd2fba4db8716c4b24610adf7288d7f71d66d92600160281b90920461ffff169186906113559062010000900464ffffffffff1689611d88565b6040805161ffff9095168552602085019390935291830152606082015260800160405180910390a3505050610e1e60018055565b6000611394816116ed565b6001600160a01b0382166113d65760405162461bcd60e51b815260206004820152600960248201526816995c9bc81c1bdbdb60ba1b6044820152606401610698565b600780546001600160a01b0319166001600160a01b0384169081179091556040517f4e1118587699e6e5efac8d50d66ad2ceae5c7b0287e42d5476b26ca0caa2c9e790600090a25050565b600061142c816116ed565b60008761ffff16118015611447575060008664ffffffffff16115b80156114535750600085115b801561145f5750600084115b61149c5760405162461bcd60e51b815260206004820152600e60248201526d496e76616c696420636f6e66696760901b6044820152606401610698565b506002805464ffffffffff968716620100000266ffffffffffffff1990911661ffff90981697909717969096179095556003929092556004556007805491909216600160a01b0264ffffffffff60a01b19909116179055600d55565b6000918252602082815260408084206001600160a01b0393909316845291905290205460ff1690565b600061152c816116ed565b60095460ff161561156a5760405162461bcd60e51b81526020600482015260086024820152671099585c881cd95d60c21b6044820152606401610698565b61157382611724565b60088190556009805460ff191660011790556040517ff740fcaaf609aa8b8706b5dfa3b56ff29a687e8079928984326d7486cb6aa185906115b79085815260200190565b60405180910390a25050565b60006115ce816116ed565b600580546001600160a01b0319166001600160a01b0384169081179091556040517f33fd3b45e39be6b35df23f4ab061d787cbf3527309c94522e410fcae7d2adc9990600090a25050565b600082815260208190526040902060010154611634816116ed565b610de583836118fa565b6000818152600f602090815260408083208151608081018352905464ffffffffff8116825261ffff600160281b82041693820184905260ff600160381b82048116151593830193909352600160401b9004909116151560608201529082036116ce576002546007546116c79164ffffffffff62010000909104811691600160a01b900416611d88565b9392505050565b60025481516116c79164ffffffffff6201000090910481169116611d88565b6116f78133611a29565b50565b60026001540361171d57604051633ee5aeb560e01b815260040160405180910390fd5b6002600155565b600080600454836117359190611e5a565b6116c7906001611d88565b6040516001600160a01b038481166024830152838116604483015260648201839052610de59186918216906323b872dd906084015b604051602081830303815290604052915060e01b6020820180516001600160e01b038381831617835250505050611a62565b6040516001600160a01b03838116602483015260448201839052610e1e91859182169063a9059cbb90606401611775565b604080516001600160a01b038416602482015260448082018490528251808303909101815260649091019091526020810180516001600160e01b031663095ea7b360e01b1790526118298482611ad3565b610de5576040516001600160a01b0384811660248301526000604483015261185e91869182169063095ea7b390606401611775565b610de58482611a62565b600061187483836114f8565b6118f2576000838152602081815260408083206001600160a01b03861684529091529020805460ff191660011790556118aa3390565b6001600160a01b0316826001600160a01b0316847f2f8788117e7eff1d82e926ec794901d17c78024a50270940304540a733656f0d60405160405180910390a4506001610647565b506000610647565b600061190683836114f8565b156118f2576000838152602081815260408083206001600160a01b0386168085529252808320805460ff1916905551339286917ff6391f5c32d9c69d2a47ea670b442974b53935d1edc7fd64eb21e047a839171b9190a4506001610647565b816001600160a01b03167f00000000000000000000000000000000000000000000000000000000000000006001600160a01b0316636352211e836040518263ffffffff1660e01b81526004016119bd91815260200190565b602060405180830381865afa1580156119da573d6000803e3d6000fd5b505050506040513d601f19601f820116820180604052508101906119fe9190611d9b565b6001600160a01b031614611a255760405163ba18ada560e01b815260040160405180910390fd5b5050565b611a3382826114f8565b611a255760405163e2517d3f60e01b81526001600160a01b038216600482015260248101839052604401610698565b600080602060008451602086016000885af180611a85576040513d6000823e3d81fd5b50506000513d91508115611a9d578060011415611aaa565b6001600160a01b0384163b155b15610de557604051635274afe760e01b81526001600160a01b0385166004820152602401610698565b6000806000806020600086516020880160008a5af192503d91506000519050828015611b1857508115611b095780600114611b18565b6000866001600160a01b03163b115b9695505050505050565b600060208284031215611b3457600080fd5b81356001600160e01b0319811681146116c757600080fd5b6001600160a01b03811681146116f757600080fd5b600060208284031215611b7357600080fd5b81356116c781611b4c565b60008083601f840112611b9057600080fd5b50813567ffffffffffffffff811115611ba857600080fd5b602083019150836020828501011115611bc057600080fd5b9250929050565b60008060008060608587031215611bdd57600080fd5b8435935060208501359250604085013567ffffffffffffffff811115611c0257600080fd5b611c0e87828801611b7e565b95989497509550505050565b600060208284031215611c2c57600080fd5b5035919050565b60008060408385031215611c4657600080fd5b823591506020830135611c5881611b4c565b809150509250929050565b600080600060408486031215611c7857600080fd5b83359250602084013567ffffffffffffffff811115611c9657600080fd5b611ca286828701611b7e565b9497909650939450505050565b803564ffffffffff81168114611cc457600080fd5b919050565b60008060008060008060c08789031215611ce257600080fd5b863561ffff81168114611cf457600080fd5b9550611d0260208801611caf565b94506040870135935060608701359250611d1e60808801611caf565b915060a087013590509295509295509295565b634e487b7160e01b600052601160045260246000fd5b808202811582820484141761064757610647611d31565b634e487b7160e01b600052601260045260246000fd5b600082611d8357611d83611d5e565b500490565b8082018082111561064757610647611d31565b600060208284031215611dad57600080fd5b81516116c781611b4c565b8181038181111561064757610647611d31565b6001600160a01b038681168252851660208201526040810184905260806060820181905281018290526000828460a0840137600060a0848401015260a0601f19601f85011683010190509695505050505050565b600060208284031215611e3157600080fd5b5051919050565b61ffff818116838216019080821115611e5357611e53611d31565b5092915050565b600082611e6957611e69611d5e565b50069056fea264697066735822122021c421fcf230619075a41de7658d8885dd3778dc45d0f21129c4ffcadd529f3d64736f6c63430008180033",
  "linkReferences": {},
  "deployedLinkReferences": {}
}