{
  "_format": "hh-sol-artifact-1",
  "contractName": "ConversionAdapter",
  "sourceName": "contracts/ConversionAdapter.sol",
  "abi": [
    {
      "inputs": [
        {
          "internalType": "address",
          "name": "depositAsset_",
          "type": "address"
        },
        {
          "internalType": "address",
          "name": "payoutAsset_",
          "type": "address"
        },
        {
          "internalType": "address",
          "name": "potTreasury_",
          "type": "address"
        }
      ],
      "stateMutability": "nonpayable",
      "type": "constructor"
    },
    {
      "inputs": [],
      "name": "AccessControlBadConfirmation",
      "type": "error"
    },
    {
      "inputs": [
        {
          "internalType": "address",
          "name": "account",
          "type": "address"
        },
        {
          "internalType": "bytes32",
          "name": "neededRole",
          "type": "bytes32"
        }
      ],
      "name": "AccessControlUnauthorizedAccount",
      "type": "error"
    },
    {
      "inputs": [
        {
          "internalType": "address",
          "name": "token",
          "type": "address"
        }
      ],
      "name": "SafeERC20FailedOperation",
      "type": "error"
    },
    {
      "anonymous": false,
      "inputs": [
        {
          "indexed": true,
          "internalType": "address",
          "name": "bridge",
          "type": "address"
        }
      ],
      "name": "BridgeUpdated",
      "type": "event"
    },
    {
      "anonymous": false,
      "inputs": [
        {
          "indexed": false,
          "internalType": "uint256",
          "name": "amount",
          "type": "uint256"
        }
      ],
      "name": "PotFunded",
      "type": "event"
    },
    {
      "anonymous": false,
      "inputs": [
        {
          "indexed": true,
          "internalType": "bytes32",
          "name": "role",
          "type": "bytes32"
        },
        {
          "indexed": true,
          "internalType": "bytes32",
          "name": "previousAdminRole",
          "type": "bytes32"
        },
        {
          "indexed": true,
          "internalType": "bytes32",
          "name": "newAdminRole",
          "type": "bytes32"
        }
      ],
      "name": "RoleAdminChanged",
      "type": "event"
    },
    {
      "anonymous": false,
      "inputs": [
        {
          "indexed": true,
          "internalType": "bytes32",
          "name": "role",
          "type": "bytes32"
        },
        {
          "indexed": true,
          "internalType": "address",
          "name": "account",
          "type": "address"
        },
        {
          "indexed": true,
          "internalType": "address",
          "name": "sender",
          "type": "address"
        }
      ],
      "name": "RoleGranted",
      "type": "event"
    },
    {
      "anonymous": false,
      "inputs": [
        {
          "indexed": true,
          "internalType": "bytes32",
          "name": "role",
          "type": "bytes32"
        },
        {
          "indexed": true,
          "internalType": "address",
          "name": "account",
          "type": "address"
        },
        {
          "indexed": true,
          "internalType": "address",
          "name": "sender",
          "type": "address"
        }
      ],
      "name": "RoleRevoked",
      "type": "event"
    },
    {
      "anonymous": false,
      "inputs": [
        {
          "indexed": false,
          "internalType": "uint256",
          "name": "amountIn",
          "type": "uint256"
        },
        {
          "indexed": false,
          "internalType": "uint256",
          "name": "amountOut",
          "type": "uint256"
        },
        {
          "indexed": true,
          "internalType": "address",
          "name": "executor",
          "type": "address"
        }
      ],
      "name": "SwapExecuted",
      "type": "event"
    },
    {
      "inputs": [],
      "name": "DEFAULT_ADMIN_ROLE",
      "outputs": [
        {
          "internalType": "bytes32",
          "name": "",
          "type": "bytes32"
        }
      ],
      "stateMutability": "view",
      "type": "function"
    },
    {
      "inputs": [],
      "name": "OPERATOR_ROLE",
      "outputs": [
        {
          "internalType": "bytes32",
          "name": "",
          "type": "bytes32"
        }
      ],
      "stateMutability": "view",
      "type": "function"
    },
    {
      "inputs": [],
      "name": "bridge",
      "outputs": [
        {
          "internalType": "contract ILineaBridge",
          "name": "",
          "type": "address"
        }
      ],
      "stateMutability": "view",
      "type": "function"
    },
    {
      "inputs": [],
      "name": "depositAsset",
      "outputs": [
        {
          "internalType": "contract IERC20",
          "name": "",
          "type": "address"
        }
      ],
      "stateMutability": "view",
      "type": "function"
    },
    {
      "inputs": [
        {
          "internalType": "bytes32",
          "name": "role",
          "type": "bytes32"
        }
      ],
      "name": "getRoleAdmin",
      "outputs": [
        {
          "internalType": "bytes32",
          "name": "",
          "type": "bytes32"
        }
      ],
      "stateMutability": "view",
      "type": "function"
    },
    {
      "inputs": [
        {
          "internalType": "bytes32",
          "name": "role",
          "type": "bytes32"
        },
        {
          "internalType": "address",
          "name": "account",
          "type": "address"
        }
      ],
      "name": "grantRole",
      "outputs": [],
      "stateMutability": "nonpayable",
      "type": "function"
    },
    {
      "inputs": [
        {
          "internalType": "bytes32",
          "name": "role",
          "type": "bytes32"
        },
        {
          "internalType": "address",
          "name": "account",
          "type": "address"
        }
      ],
      "name": "hasRole",
      "outputs": [
        {
          "internalType": "bool",
          "name": "",
          "type": "bool"
        }
      ],
      "stateMutability": "view",
      "type": "function"
    },
    {
      "inputs": [],
      "name": "payoutAsset",
      "outputs": [
        {
          "internalType": "contract IERC20",
          "name": "",
          "type": "address"
        }
      ],
      "stateMutability": "view",
      "type": "function"
    },
    {
      "inputs": [],
      "name": "potTreasury",
      "outputs": [
        {
          "internalType": "address",
          "name": "",
          "type": "address"
        }
      ],
      "stateMutability": "view",
      "type": "function"
    },
    {
      "inputs": [
        {
          "internalType": "uint256",
          "name": "amount",
          "type": "uint256"
        }
      ],
      "name": "pushToBridge",
      "outputs": [],
      "stateMutability": "nonpayable",
      "type": "function"
    },
    {
      "inputs": [
        {
          "internalType": "uint256",
          "name": "amountIn",
          "type": "uint256"
        },
        {
          "internalType": "uint256",
          "name": "amountOut",
          "type": "uint256"
        }
      ],
      "name": "recordSwap",
      "outputs": [],
      "stateMutability": "nonpayable",
      "type": "function"
    },
    {
      "inputs": [
        {
          "internalType": "bytes32",
          "name": "role",
          "type": "bytes32"
        },
        {
          "internalType": "address",
          "name": "callerConfirmation",
          "type": "address"
        }
      ],
      "name": "renounceRole",
      "outputs": [],
      "stateMutability": "nonpayable",
      "type": "function"
    },
    {
      "inputs": [
        {
          "internalType": "bytes32",
          "name": "role",
          "type": "bytes32"
        },
        {
          "internalType": "address",
          "name": "account",
          "type": "address"
        }
      ],
      "name": "revokeRole",
      "outputs": [],
      "stateMutability": "nonpayable",
      "type": "function"
    },
    {
      "inputs": [
        {
          "internalType": "address",
          "name": "bridge_",
          "type": "address"
        }
      ],
      "name": "setBridge",
      "outputs": [],
      "stateMutability": "nonpayable",
      "type": "function"
    },
    {
      "inputs": [
        {
          "internalType": "bytes4",
          "name": "interfaceId",
          "type": "bytes4"
        }
      ],
      "name": "supportsInterface",
      "outputs": [
        {
          "internalType": "bool",
          "name": "",
          "type": "bool"
        }
      ],
      "stateMutability": "view",
      "type": "function"
    }
  ],
  "bytecode": "0x60e060405234801561001057600080fd5b50604051610b9b380380610b9b83398101604081905261002f91610197565b6001600160a01b0383161580159061004f57506001600160a01b03821615155b801561006357506001600160a01b03811615155b6100a25760405162461bcd60e51b815260206004820152600c60248201526b5a65726f206164647265737360a01b604482015260640160405180910390fd5b6001600160a01b0380841660805282811660a052811660c0526100c66000336100cf565b505050506101da565b6000828152602081815260408083206001600160a01b038516845290915281205460ff16610171576000838152602081815260408083206001600160a01b03861684529091529020805460ff191660011790556101293390565b6001600160a01b0316826001600160a01b0316847f2f8788117e7eff1d82e926ec794901d17c78024a50270940304540a733656f0d60405160405180910390a4506001610175565b5060005b92915050565b80516001600160a01b038116811461019257600080fd5b919050565b6000806000606084860312156101ac57600080fd5b6101b58461017b565b92506101c36020850161017b565b91506101d16040850161017b565b90509250925092565b60805160a05160c05161098461021760003960006101d2015260008181610193015281816104b301526104f60152600061022701526109846000f3fe608060405234801561001057600080fd5b50600436106100f55760003560e01c80638dd1480211610097578063d19cb98011610066578063d19cb98014610249578063d547741f1461025c578063e78cea921461026f578063f5b541a61461028257600080fd5b80638dd14802146101f457806391d1485414610207578063a217fddf1461021a578063ccc41f241461022257600080fd5b80632f2ff15d116100d35780632f2ff15d1461016857806336568abe1461017b5780633eac52511461018e578063413a45a8146101cd57600080fd5b806301ffc9a7146100fa57806302c50a9e14610122578063248a9ca314610137575b600080fd5b61010d61010836600461087f565b6102a9565b60405190151581526020015b60405180910390f35b6101356101303660046108b0565b6102e0565b005b61015a6101453660046108d2565b60009081526020819052604090206001015490565b604051908152602001610119565b610135610176366004610907565b61034a565b610135610189366004610907565b610375565b6101b57f000000000000000000000000000000000000000000000000000000000000000081565b6040516001600160a01b039091168152602001610119565b6101b57f000000000000000000000000000000000000000000000000000000000000000081565b610135610202366004610933565b6103ad565b61010d610215366004610907565b610403565b61015a600081565b6101b57f000000000000000000000000000000000000000000000000000000000000000081565b6101356102573660046108d2565b61042c565b61013561026a366004610907565b61059f565b6001546101b5906001600160a01b031681565b61015a7f97667070c54ef182b0f5858b034beac1b6f3089aa2d3188bb1e8929f4fa9b92981565b60006001600160e01b03198216637965db0b60e01b14806102da57506301ffc9a760e01b6001600160e01b03198316145b92915050565b7f97667070c54ef182b0f5858b034beac1b6f3089aa2d3188bb1e8929f4fa9b92961030a816105c4565b604080518481526020810184905233917ff4713f6f4b2c833a789f180f5e554718402d5ab9e88730f6ae8b3f565b7b3001910160405180910390a2505050565b600082815260208190526040902060010154610365816105c4565b61036f83836105d1565b50505050565b6001600160a01b038116331461039e5760405163334bd91960e11b815260040160405180910390fd5b6103a88282610663565b505050565b60006103b8816105c4565b600180546001600160a01b0319166001600160a01b0384169081179091556040517fe1694c0b21fdceff6411daed547c7463c2341b9695387bc82595b5b9b1851d4a90600090a25050565b6000918252602082815260408084206001600160a01b0393909316845291905290205460ff1690565b7f97667070c54ef182b0f5858b034beac1b6f3089aa2d3188bb1e8929f4fa9b929610456816105c4565b6001546001600160a01b03166104a25760405162461bcd60e51b815260206004820152600c60248201526b109c9a5919d9481d5b9cd95d60a21b60448201526064015b60405180910390fd5b6001546104dc906001600160a01b037f000000000000000000000000000000000000000000000000000000000000000081169116846106ce565b6001546040516311f9fbc960e21b81526001600160a01b037f00000000000000000000000000000000000000000000000000000000000000008116600483015260248201859052909116906347e7ef2490604401600060405180830381600087803b15801561054a57600080fd5b505af115801561055e573d6000803e3d6000fd5b505050507f065da79752e89c0debd87a1c71ae1d472add974dc19b2fc258f88b5598fcfa768260405161059391815260200190565b60405180910390a15050565b6000828152602081905260409020600101546105ba816105c4565b61036f8383610663565b6105ce8133610782565b50565b60006105dd8383610403565b61065b576000838152602081815260408083206001600160a01b03861684529091529020805460ff191660011790556106133390565b6001600160a01b0316826001600160a01b0316847f2f8788117e7eff1d82e926ec794901d17c78024a50270940304540a733656f0d60405160405180910390a45060016102da565b5060006102da565b600061066f8383610403565b1561065b576000838152602081815260408083206001600160a01b0386168085529252808320805460ff1916905551339286917ff6391f5c32d9c69d2a47ea670b442974b53935d1edc7fd64eb21e047a839171b9190a45060016102da565b604080516001600160a01b038416602482015260448082018490528251808303909101815260649091019091526020810180516001600160e01b031663095ea7b360e01b17905261071f84826107bf565b61036f57604080516001600160a01b038516602482015260006044808301919091528251808303909101815260649091019091526020810180516001600160e01b031663095ea7b360e01b17905261077890859061080e565b61036f848261080e565b61078c8282610403565b6107bb5760405163e2517d3f60e01b81526001600160a01b038216600482015260248101839052604401610499565b5050565b6000806000806020600086516020880160008a5af192503d91506000519050828015610804575081156107f55780600114610804565b6000866001600160a01b03163b115b9695505050505050565b600080602060008451602086016000885af180610831576040513d6000823e3d81fd5b50506000513d91508115610849578060011415610856565b6001600160a01b0384163b155b1561036f57604051635274afe760e01b81526001600160a01b0385166004820152602401610499565b60006020828403121561089157600080fd5b81356001600160e01b0319811681146108a957600080fd5b9392505050565b600080604083850312156108c357600080fd5b50508035926020909101359150565b6000602082840312156108e457600080fd5b5035919050565b80356001600160a01b038116811461090257600080fd5b919050565b6000806040838503121561091a57600080fd5b8235915061092a602084016108eb565b90509250929050565b60006020828403121561094557600080fd5b6108a9826108eb56fea26469706673582212200a45042700d03991ecbf83f3db30008d55f361d11f66b3bef3325508ee603eaa64736f6c63430008180033",
  "linkReferences": {},
  "deployedLinkReferences": {}
}