{
  "_format": "hh-sol-artifact-1",
  "contractName": "HoneyPotGame",
  "sourceName": "contracts/HoneyPotGame.sol",
  "abi": [
    {
      "inputs": [
        {
          "internalType": "address",
          "name": "stakeToken_",
          "type": "address"
        },
        {
          "internalType": "address",
          "name": "beeNft_",
          "type": "address"
        },
        {
          "internalType": "uint256",
          "name": "dailyAmount_",
          "type": "uint256"
        }
      ],
      "stateMutability": "nonpayable",
      "type": "constructor"
    },
    {
      "inputs": [],
      "name": "AccessControlBadConfirmation",
      "type": "error"
    },
    {
      "inputs": [
        {
          "internalType": "address",
          "name": "account",
          "type": "address"
        },
        {
          "internalType": "bytes32",
          "name": "neededRole",
          "type": "bytes32"
        }
      ],
      "name": "AccessControlUnauthorizedAccount",
      "type": "error"
    },
    {
      "inputs": [],
      "name": "BeeEliminatedError",
      "type": "error"
    },
    {
      "inputs": [],
      "name": "DepositLocked",
      "type": "error"
    },
    {
      "inputs": [],
      "name": "NotBeeOwner",
      "type": "error"
    },
    {
      "inputs": [],
      "name": "ReentrancyGuardReentrantCall",
      "type": "error"
    },
    {
      "inputs": [],
      "name": "RewardAlreadyClaimed",
      "type": "error"
    },
    {
      "inputs": [
        {
          "internalType": "address",
          "name": "token",
          "type": "address"
        }
      ],
      "name": "SafeERC20FailedOperation",
      "type": "error"
    },
    {
      "inputs": [],
      "name": "SeasonFinalized",
      "type": "error"
    },
    {
      "inputs": [],
      "name": "SeasonRunning",
      "type": "error"
    },
    {
      "anonymous": false,
      "inputs": [
        {
          "indexed": true,
          "internalType": "uint256",
          "name": "beeId",
          "type": "uint256"
        },
        {
          "indexed": false,
          "internalType": "uint40",
          "name": "lastDepositAt",
          "type": "uint40"
        }
      ],
      "name": "BeeEliminated",
      "type": "event"
    },
    {
      "anonymous": false,
      "inputs": [
        {
          "indexed": true,
          "internalType": "address",
          "name": "bee",
          "type": "address"
        },
        {
          "indexed": true,
          "internalType": "uint256",
          "name": "beeId",
          "type": "uint256"
        },
        {
          "indexed": false,
          "internalType": "uint16",
          "name": "dayNumber",
          "type": "uint16"
        },
        {
          "indexed": false,
          "internalType": "uint256",
          "name": "depositedAmount",
          "type": "uint256"
        },
        {
          "indexed": false,
          "internalType": "uint256",
          "name": "deadline",
          "type": "uint256"
        }
      ],
      "name": "DepositRecorded",
      "type": "event"
    },
    {
      "anonymous": false,
      "inputs": [
        {
          "indexed": true,
          "internalType": "address",
          "name": "bee",
          "type": "address"
        },
        {
          "indexed": true,
          "internalType": "uint256",
          "name": "beeId",
          "type": "uint256"
        },
        {
          "indexed": false,
          "internalType": "uint256",
          "name": "payout",
          "type": "uint256"
        }
      ],
      "name": "RewardClaimed",
      "type": "event"
    },
    {
      "anonymous": false,
      "inputs": [
        {
          "indexed": true,
          "internalType": "bytes32",
          "name": "role",
          "type": "bytes32"
        },
        {
          "indexed": true,
          "internalType": "bytes32",
          "name": "previousAdminRole",
          "type": "bytes32"
        },
        {
          "indexed": true,
          "internalType": "bytes32",
          "name": "newAdminRole",
          "type": "bytes32"
        }
      ],
      "name": "RoleAdminChanged",
      "type": "event"
    },
    {
      "anonymous": false,
      "inputs": [
        {
          "indexed": true,
          "internalType": "bytes32",
          "name": "role",
          "type": "bytes32"
        },
        {
          "indexed": true,
          "internalType": "address",
          "name": "account",
          "type": "address"
        },
        {
          "indexed": true,
          "internalType": "address",
          "name": "sender",
          "type": "address"
        }
      ],
      "name": "RoleGranted",
      "type": "event"
    },
    {
      "anonymous": false,
      "inputs": [
        {
          "indexed": true,
          "internalType": "bytes32",
          "name": "role",
          "type": "bytes32"
        },
        {
          "indexed": true,
          "internalType": "address",
          "name": "account",
          "type": "address"
        },
        {
          "indexed": true,
          "internalType": "address",
          "name": "sender",
          "type": "address"
        }
      ],
      "name": "RoleRevoked",
      "type": "event"
    },
    {
      "anonymous": false,
      "inputs": [
        {
          "indexed": false,
          "internalType": "uint256",
          "name": "timestamp",
          "type": "uint256"
        },
        {
          "indexed": false,
          "internalType": "uint256",
          "name": "survivors",
          "type": "uint256"
        }
      ],
      "name": "SeasonClosed",
      "type": "event"
    },
    {
      "inputs": [],
      "name": "DEFAULT_ADMIN_ROLE",
      "outputs": [
        {
          "internalType": "bytes32",
          "name": "",
          "type": "bytes32"
        }
      ],
      "stateMutability": "view",
      "type": "function"
    },
    {
      "inputs": [],
      "name": "DEPOSIT_WINDOW",
      "outputs": [
        {
          "internalType": "uint256",
          "name": "",
          "type": "uint256"
        }
      ],
      "stateMutability": "view",
      "type": "function"
    },
    {
      "inputs": [],
      "name": "KEEPER_ROLE",
      "outputs": [
        {
          "internalType": "bytes32",
          "name": "",
          "type": "bytes32"
        }
      ],
      "stateMutability": "view",
      "type": "function"
    },
    {
      "inputs": [],
      "name": "TOTAL_DAYS",
      "outputs": [
        {
          "internalType": "uint256",
          "name": "",
          "type": "uint256"
        }
      ],
      "stateMutability": "view",
      "type": "function"
    },
    {
      "inputs": [],
      "name": "beeNft",
      "outputs": [
        {
          "internalType": "contract HoneyPotBee",
          "name": "",
          "type": "address"
        }
      ],
      "stateMutability": "view",
      "type": "function"
    },
    {
      "inputs": [
        {
          "internalType": "uint256",
          "name": "beeId",
          "type": "uint256"
        },
        {
          "internalType": "address",
          "name": "recipient",
          "type": "address"
        }
      ],
      "name": "claimReward",
      "outputs": [],
      "stateMutability": "nonpayable",
      "type": "function"
    },
    {
      "inputs": [],
      "name": "closeSeason",
      "outputs": [],
      "stateMutability": "nonpayable",
      "type": "function"
    },
    {
      "inputs": [],
      "name": "dailyAmount",
      "outputs": [
        {
          "internalType": "uint256",
          "name": "",
          "type": "uint256"
        }
      ],
      "stateMutability": "view",
      "type": "function"
    },
    {
      "inputs": [
        {
          "internalType": "uint256",
          "name": "beeId",
          "type": "uint256"
        }
      ],
      "name": "deposit",
      "outputs": [],
      "stateMutability": "nonpayable",
      "type": "function"
    },
    {
      "inputs": [
        {
          "internalType": "uint256",
          "name": "beeId",
          "type": "uint256"
        }
      ],
      "name": "forceEliminate",
      "outputs": [],
      "stateMutability": "nonpayable",
      "type": "function"
    },
    {
      "inputs": [
        {
          "internalType": "uint256",
          "name": "beeId",
          "type": "uint256"
        }
      ],
      "name": "getCurrentDeadline",
      "outputs": [
        {
          "internalType": "uint256",
          "name": "",
          "type": "uint256"
        }
      ],
      "stateMutability": "view",
      "type": "function"
    },
    {
      "inputs": [
        {
          "internalType": "bytes32",
          "name": "role",
          "type": "bytes32"
        }
      ],
      "name": "getRoleAdmin",
      "outputs": [
        {
          "internalType": "bytes32",
          "name": "",
          "type": "bytes32"
        }
      ],
      "stateMutability": "view",
      "type": "function"
    },
    {
      "inputs": [
        {
          "internalType": "bytes32",
          "name": "role",
          "type": "bytes32"
        },
        {
          "internalType": "address",
          "name": "account",
          "type": "address"
        }
      ],
      "name": "grantRole",
      "outputs": [],
      "stateMutability": "nonpayable",
      "type": "function"
    },
    {
      "inputs": [
        {
          "internalType": "bytes32",
          "name": "role",
          "type": "bytes32"
        },
        {
          "internalType": "address",
          "name": "account",
          "type": "address"
        }
      ],
      "name": "hasRole",
      "outputs": [
        {
          "internalType": "bool",
          "name": "",
          "type": "bool"
        }
      ],
      "stateMutability": "view",
      "type": "function"
    },
    {
      "inputs": [
        {
          "internalType": "uint256",
          "name": "",
          "type": "uint256"
        }
      ],
      "name": "progressByBee",
      "outputs": [
        {
          "internalType": "uint40",
          "name": "lastDepositAt",
          "type": "uint40"
        },
        {
          "internalType": "uint16",
          "name": "daysCompleted",
          "type": "uint16"
        },
        {
          "internalType": "bool",
          "name": "eliminated",
          "type": "bool"
        },
        {
          "internalType": "bool",
          "name": "rewardClaimed",
          "type": "bool"
        }
      ],
      "stateMutability": "view",
      "type": "function"
    },
    {
      "inputs": [
        {
          "internalType": "uint256",
          "name": "beeId",
          "type": "uint256"
        },
        {
          "internalType": "uint40",
          "name": "timestamp",
          "type": "uint40"
        },
        {
          "internalType": "uint16",
          "name": "dayCount",
          "type": "uint16"
        }
      ],
      "name": "registerEarlyDeposit",
      "outputs": [],
      "stateMutability": "nonpayable",
      "type": "function"
    },
    {
      "inputs": [
        {
          "internalType": "bytes32",
          "name": "role",
          "type": "bytes32"
        },
        {
          "internalType": "address",
          "name": "callerConfirmation",
          "type": "address"
        }
      ],
      "name": "renounceRole",
      "outputs": [],
      "stateMutability": "nonpayable",
      "type": "function"
    },
    {
      "inputs": [
        {
          "internalType": "bytes32",
          "name": "role",
          "type": "bytes32"
        },
        {
          "internalType": "address",
          "name": "account",
          "type": "address"
        }
      ],
      "name": "revokeRole",
      "outputs": [],
      "stateMutability": "nonpayable",
      "type": "function"
    },
    {
      "inputs": [],
      "name": "seasonClosed",
      "outputs": [
        {
          "internalType": "bool",
          "name": "",
          "type": "bool"
        }
      ],
      "stateMutability": "view",
      "type": "function"
    },
    {
      "inputs": [],
      "name": "seasonStart",
      "outputs": [
        {
          "internalType": "uint256",
          "name": "",
          "type": "uint256"
        }
      ],
      "stateMutability": "view",
      "type": "function"
    },
    {
      "inputs": [],
      "name": "stakeToken",
      "outputs": [
        {
          "internalType": "contract IERC20",
          "name": "",
          "type": "address"
        }
      ],
      "stateMutability": "view",
      "type": "function"
    },
    {
      "inputs": [
        {
          "internalType": "bytes4",
          "name": "interfaceId",
          "type": "bytes4"
        }
      ],
      "name": "supportsInterface",
      "outputs": [
        {
          "internalType": "bool",
          "name": "",
          "type": "bool"
        }
      ],
      "stateMutability": "view",
      "type": "function"
    },
    {
      "inputs": [],
      "name": "survivors",
      "outputs": [
        {
          "internalType": "uint256",
          "name": "",
          "type": "uint256"
        }
      ],
      "stateMutability": "view",
      "type": "function"
    },
    {
      "inputs": [],
      "name": "totalDeposited",
      "outputs": [
        {
          "internalType": "uint256",
          "name": "",
          "type": "uint256"
        }
      ],
      "stateMutability": "view",
      "type": "function"
    }
  ],
  "bytecode": "0x6101006040523480156200001257600080fd5b50604051620012e5380380620012e5833981016040819052620000359162000182565b60016000556001600160a01b038316158015906200005b57506001600160a01b03821615155b6200009b5760405162461bcd60e51b815260206004820152600c60248201526b5a65726f206164647265737360a01b604482015260640160405180910390fd5b6001600160a01b03808416608052821660a05260c08190524260e052620000c4600033620000ce565b50505050620001c3565b60008281526001602090815260408083206001600160a01b038516845290915281205460ff166200015b5760008381526001602081815260408084206001600160a01b0387168086529252808420805460ff19169093179092559051339286917f2f8788117e7eff1d82e926ec794901d17c78024a50270940304540a733656f0d9190a45060016200015f565b5060005b92915050565b80516001600160a01b03811681146200017d57600080fd5b919050565b6000806000606084860312156200019857600080fd5b620001a38462000165565b9250620001b36020850162000165565b9150604084015190509250925092565b60805160a05160c05160e0516110b062000235600039600081816102d8015281816108d80152610bb401526000818161027001528181610748015281816107dd01526108360152600081816103830152610d1e015260008181610228015281816107b90152610ace01526110b06000f3fe608060405234801561001057600080fd5b50600436106101585760003560e01c8063a217fddf116100c3578063cda34a361161007c578063cda34a36146103a5578063d547741f146103ae578063e70eb392146103c1578063f7ec31f8146103d4578063f9cf71ae146103e1578063ff50abdc146103f457600080fd5b8063a217fddf146102b8578063b6b55f25146102c0578063bafa0946146102d3578063bbc67395146102fa578063be057e0714610302578063c3b08ab51461037e57600080fd5b80633af3c732116101155780633af3c7321461021057806351ed6a301461022357806357980a431461026257806359c1334b1461026b57806391d148541461029257806393915b3a146102a557600080fd5b806301ffc9a71461015d57806305c0dd9114610185578063248a9ca31461019d5780632f2ff15d146101c1578063364bc15a146101d657806336568abe146101fd575b600080fd5b61017061016b366004610efe565b6103fd565b60405190151581526020015b60405180910390f35b61018f6201518081565b60405190815260200161017c565b61018f6101ab366004610f28565b6000908152600160208190526040909120015490565b6101d46101cf366004610f56565b610434565b005b61018f7ffc8737ab85eb45125971625a9ebdb75cc78e01d5c1fa80c4c6e5203f47bc4fab81565b6101d461020b366004610f56565b610460565b6101d461021e366004610f28565b610498565b61024a7f000000000000000000000000000000000000000000000000000000000000000081565b6040516001600160a01b03909116815260200161017c565b61018f6101a481565b61018f7f000000000000000000000000000000000000000000000000000000000000000081565b6101706102a0366004610f56565b610551565b6101d46102b3366004610f86565b61057c565b61018f600081565b6101d46102ce366004610f28565b6105e5565b61018f7f000000000000000000000000000000000000000000000000000000000000000081565b6101d4610894565b61034b610310366004610f28565b60056020526000908152604090205464ffffffffff81169061ffff600160281b8204169060ff600160381b8204811691600160401b90041684565b6040805164ffffffffff909516855261ffff9093166020850152901515918301919091521515606082015260800161017c565b61024a7f000000000000000000000000000000000000000000000000000000000000000081565b61018f60035481565b6101d46103bc366004610f56565b610971565b6101d46103cf366004610f56565b610997565b6004546101709060ff1681565b61018f6103ef366004610f28565b610b49565b61018f60025481565b60006001600160e01b03198216637965db0b60e01b148061042e57506301ffc9a760e01b6001600160e01b03198316145b92915050565b6000828152600160208190526040909120015461045081610bf6565b61045a8383610c00565b50505050565b6001600160a01b03811633146104895760405163334bd91960e11b815260040160405180910390fd5b6104938282610c79565b505050565b60008181526005602052604090208054600160381b900460ff16156104d0576040516324bdeaa960e01b815260040160405180910390fd5b60006104db83610b49565b90508042116104fd5760405163f38b9b5b60e01b815260040160405180910390fd5b8154600160381b60ff60381b19821617835560405164ffffffffff909116815283907f2e9fccfec6d697805a2069fa14c0e3d3fda40c14b6d8a27c3fbc5a5d6281b46e9060200160405180910390a2505050565b60009182526001602090815260408084206001600160a01b0393909316845291905290205460ff1690565b7ffc8737ab85eb45125971625a9ebdb75cc78e01d5c1fa80c4c6e5203f47bc4fab6105a681610bf6565b50600092835260056020526040909220805461ffff909316600160281b0266ffffffffffffff1990931664ffffffffff90921691909117919091179055565b6105ed610ce6565b60008181526005602052604090208054600160381b900460ff1615610625576040516324bdeaa960e01b815260040160405180910390fd5b61062f3383610d10565b61064c5760405163ba18ada560e01b815260040160405180910390fd5b80546101a4600160281b90910461ffff161061067b5760405163f38b9b5b60e01b815260040160405180910390fd5b600061068683610b49565b9050804211156106f8578154600160381b60ff60381b19821617835560405164ffffffffff909116815283907f2e9fccfec6d697805a2069fa14c0e3d3fda40c14b6d8a27c3fbc5a5d6281b46e9060200160405180910390a26040516324bdeaa960e01b815260040160405180910390fd5b815464ffffffffff19164264ffffffffff1617808355600190839060059061072c908490600160281b900461ffff16610fef565b92506101000a81548161ffff021916908361ffff1602179055507f0000000000000000000000000000000000000000000000000000000000000000600260008282546107789190611011565b90915550508154600160281b900461ffff166101a319016107ac576001600360008282546107a69190611011565b90915550505b6108016001600160a01b037f00000000000000000000000000000000000000000000000000000000000000001633307f0000000000000000000000000000000000000000000000000000000000000000610dbc565b8154839033907f6b336e7c41f881557fd7b737e9f37bcfa43f7751fc6c8b93f1536249b960815390600160281b900461ffff167f00000000000000000000000000000000000000000000000000000000000000006108626201518042611011565b6040805161ffff909416845260208401929092529082015260600160405180910390a350506108916001600055565b50565b600061089f81610bf6565b60045460ff16156108c35760405163c689bf7560e01b815260040160405180910390fd5b6108d2620151806101a4611024565b6108fc907f0000000000000000000000000000000000000000000000000000000000000000611011565b42101561091c57604051631f2b554560e11b815260040160405180910390fd5b6004805460ff191660011790556003546040517f1e1fd0d309f16671cc0c385264689511ca3162df39c2f0540e4cf202a296cd419161096691429190918252602082015260400190565b60405180910390a150565b6000828152600160208190526040909120015461098d81610bf6565b61045a8383610c79565b61099f610ce6565b60008281526005602052604090206109b73384610d10565b6109d45760405163ba18ada560e01b815260040160405180910390fd5b60045460ff166109f757604051631f2b554560e11b815260040160405180910390fd5b80546101a4600160281b90910461ffff161015610a27576040516324bdeaa960e01b815260040160405180910390fd5b8054600160401b900460ff1615610a5157604051632cfe303760e21b815260040160405180910390fd5b600060035411610a975760405162461bcd60e51b815260206004820152600c60248201526b4e6f207375727669766f727360a01b60448201526064015b60405180910390fd5b6000600354600254610aa9919061103b565b825468ff00000000000000001916600160401b1783559050610af56001600160a01b037f0000000000000000000000000000000000000000000000000000000000000000168483610e23565b83836001600160a01b03167ff01da32686223933d8a18a391060918c7f11a3648639edd87ae013e2e273174383604051610b3191815260200190565b60405180910390a35050610b456001600055565b5050565b60008181526005602090815260408083208151608081018352905464ffffffffff8116825261ffff600160281b82041693820184905260ff600160381b82048116151593830193909352600160401b900490911615156060820152908203610bdf57610bd8620151807f0000000000000000000000000000000000000000000000000000000000000000611011565b9392505050565b8051610bd890620151809064ffffffffff16611011565b6108918133610e54565b6000610c0c8383610551565b610c715760008381526001602081815260408084206001600160a01b0387168086529252808420805460ff19169093179092559051339286917f2f8788117e7eff1d82e926ec794901d17c78024a50270940304540a733656f0d9190a450600161042e565b50600061042e565b6000610c858383610551565b15610c715760008381526001602090815260408083206001600160a01b0386168085529252808320805460ff1916905551339286917ff6391f5c32d9c69d2a47ea670b442974b53935d1edc7fd64eb21e047a839171b9190a450600161042e565b600260005403610d0957604051633ee5aeb560e01b815260040160405180910390fd5b6002600055565b6000826001600160a01b03167f00000000000000000000000000000000000000000000000000000000000000006001600160a01b0316636352211e846040518263ffffffff1660e01b8152600401610d6a91815260200190565b602060405180830381865afa158015610d87573d6000803e3d6000fd5b505050506040513d601f19601f82011682018060405250810190610dab919061105d565b6001600160a01b0316149392505050565b6040516001600160a01b03848116602483015283811660448301526064820183905261045a9186918216906323b872dd906084015b604051602081830303815290604052915060e01b6020820180516001600160e01b038381831617835250505050610e8d565b6040516001600160a01b0383811660248301526044820183905261049391859182169063a9059cbb90606401610df1565b610e5e8282610551565b610b455760405163e2517d3f60e01b81526001600160a01b038216600482015260248101839052604401610a8e565b600080602060008451602086016000885af180610eb0576040513d6000823e3d81fd5b50506000513d91508115610ec8578060011415610ed5565b6001600160a01b0384163b155b1561045a57604051635274afe760e01b81526001600160a01b0385166004820152602401610a8e565b600060208284031215610f1057600080fd5b81356001600160e01b031981168114610bd857600080fd5b600060208284031215610f3a57600080fd5b5035919050565b6001600160a01b038116811461089157600080fd5b60008060408385031215610f6957600080fd5b823591506020830135610f7b81610f41565b809150509250929050565b600080600060608486031215610f9b57600080fd5b83359250602084013564ffffffffff81168114610fb757600080fd5b9150604084013561ffff81168114610fce57600080fd5b809150509250925092565b634e487b7160e01b600052601160045260246000fd5b61ffff81811683821601908082111561100a5761100a610fd9565b5092915050565b8082018082111561042e5761042e610fd9565b808202811582820484141761042e5761042e610fd9565b60008261105857634e487b7160e01b600052601260045260246000fd5b500490565b60006020828403121561106f57600080fd5b8151610bd881610f4156fea26469706673582212208ce19348a7bca4cce959b01f6c3db1acf8c9d70804014452b53e7f11e16f12f864736f6c63430008180033",
  "linkReferences": {},
  "deployedLinkReferences": {}
}